{
  "_format": "hh-sol-artifact-1",
  "contractName": "Rewards",
  "sourceName": "contracts/Rewards.sol",
  "abi": [
    {
      "inputs": [
        {
          "internalType": "address",
          "name": "_haloTokenAddress",
          "type": "address"
        },
        {
          "internalType": "uint256",
          "name": "_startingRewards",
          "type": "uint256"
        },
        {
          "internalType": "uint256",
          "name": "_decayBase",
          "type": "uint256"
        },
        {
          "internalType": "uint256",
          "name": "_epochLength",
          "type": "uint256"
        },
        {
          "internalType": "uint256",
          "name": "_minterLpRewardsRatio",
          "type": "uint256"
        },
        {
          "internalType": "uint256",
          "name": "_ammLpRewardsRatio",
          "type": "uint256"
        },
        {
          "internalType": "uint256",
          "name": "_vestingRewardsRatio",
          "type": "uint256"
        },
        {
          "internalType": "address",
          "name": "_minter",
          "type": "address"
        },
        {
          "internalType": "uint256",
          "name": "_genesisTs",
          "type": "uint256"
        },
        {
          "components": [
            {
              "internalType": "address",
              "name": "poolAddress",
              "type": "address"
            },
            {
              "internalType": "uint256",
              "name": "allocPoint",
              "type": "uint256"
            }
          ],
          "internalType": "struct Rewards.Pool[]",
          "name": "_minterLpPools",
          "type": "tuple[]"
        },
        {
          "components": [
            {
              "internalType": "address",
              "name": "poolAddress",
              "type": "address"
            },
            {
              "internalType": "uint256",
              "name": "allocPoint",
              "type": "uint256"
            }
          ],
          "internalType": "struct Rewards.Pool[]",
          "name": "_ammLpPools",
          "type": "tuple[]"
        }
      ],
      "stateMutability": "nonpayable",
      "type": "constructor"
    },
    {
      "anonymous": false,
      "inputs": [
        {
          "indexed": false,
          "internalType": "address",
          "name": "lpAddress",
          "type": "address"
        },
        {
          "indexed": false,
          "internalType": "uint256",
          "name": "accHaloPerShare",
          "type": "uint256"
        },
        {
          "indexed": false,
          "internalType": "uint256",
          "name": "lastRewardTs",
          "type": "uint256"
        }
      ],
      "name": "AmmRewardPoolUpdated",
      "type": "event"
    },
    {
      "anonymous": false,
      "inputs": [
        {
          "indexed": true,
          "internalType": "address",
          "name": "user",
          "type": "address"
        },
        {
          "indexed": true,
          "internalType": "address",
          "name": "lpAddress",
          "type": "address"
        },
        {
          "indexed": false,
          "internalType": "uint256",
          "name": "amount",
          "type": "uint256"
        }
      ],
      "name": "DepositLPTokens",
      "type": "event"
    },
    {
      "anonymous": false,
      "inputs": [
        {
          "indexed": true,
          "internalType": "address",
          "name": "user",
          "type": "address"
        },
        {
          "indexed": true,
          "internalType": "address",
          "name": "collateralAddress",
          "type": "address"
        },
        {
          "indexed": false,
          "internalType": "uint256",
          "name": "amount",
          "type": "uint256"
        }
      ],
      "name": "DepositMinter",
      "type": "event"
    },
    {
      "anonymous": false,
      "inputs": [
        {
          "indexed": false,
          "internalType": "uint256",
          "name": "loc",
          "type": "uint256"
        },
        {
          "indexed": false,
          "internalType": "uint256",
          "name": "ts",
          "type": "uint256"
        }
      ],
      "name": "Log",
      "type": "event"
    },
    {
      "anonymous": false,
      "inputs": [
        {
          "indexed": false,
          "internalType": "address",
          "name": "collateralAddress",
          "type": "address"
        },
        {
          "indexed": false,
          "internalType": "uint256",
          "name": "accHaloPerShare",
          "type": "uint256"
        },
        {
          "indexed": false,
          "internalType": "uint256",
          "name": "lastRewardTs",
          "type": "uint256"
        }
      ],
      "name": "MinterRewardPoolUpdated",
      "type": "event"
    },
    {
      "anonymous": false,
      "inputs": [
        {
          "indexed": true,
          "internalType": "address",
          "name": "previousOwner",
          "type": "address"
        },
        {
          "indexed": true,
          "internalType": "address",
          "name": "newOwner",
          "type": "address"
        }
      ],
      "name": "OwnershipTransferred",
      "type": "event"
    },
    {
      "anonymous": false,
      "inputs": [
        {
          "indexed": false,
          "internalType": "uint256",
          "name": "amount",
          "type": "uint256"
        },
        {
          "indexed": false,
          "internalType": "uint256",
          "name": "timestamp",
          "type": "uint256"
        }
      ],
      "name": "VestedRewardsReleased",
      "type": "event"
    },
    {
      "anonymous": false,
      "inputs": [
        {
          "indexed": true,
          "internalType": "address",
          "name": "user",
          "type": "address"
        },
        {
          "indexed": true,
          "internalType": "address",
          "name": "lpAddress",
          "type": "address"
        },
        {
          "indexed": false,
          "internalType": "uint256",
          "name": "amount",
          "type": "uint256"
        }
      ],
      "name": "WithdrawLPTokens",
      "type": "event"
    },
    {
      "anonymous": false,
      "inputs": [
        {
          "indexed": true,
          "internalType": "address",
          "name": "user",
          "type": "address"
        },
        {
          "indexed": true,
          "internalType": "address",
          "name": "collateralAddress",
          "type": "address"
        },
        {
          "indexed": false,
          "internalType": "uint256",
          "name": "amount",
          "type": "uint256"
        }
      ],
      "name": "WithdrawMinter",
      "type": "event"
    },
    {
      "inputs": [],
      "name": "BPS",
      "outputs": [
        {
          "internalType": "uint256",
          "name": "",
          "type": "uint256"
        }
      ],
      "stateMutability": "view",
      "type": "function"
    },
    {
      "inputs": [],
      "name": "DECIMALS",
      "outputs": [
        {
          "internalType": "uint256",
          "name": "",
          "type": "uint256"
        }
      ],
      "stateMutability": "view",
      "type": "function"
    },
    {
      "inputs": [
        {
          "internalType": "address",
          "name": "_lpAddress",
          "type": "address"
        },
        {
          "internalType": "uint256",
          "name": "_allocPoint",
          "type": "uint256"
        }
      ],
      "name": "addAmmLp",
      "outputs": [],
      "stateMutability": "nonpayable",
      "type": "function"
    },
    {
      "inputs": [
        {
          "internalType": "address",
          "name": "_collateralAddress",
          "type": "address"
        },
        {
          "internalType": "uint256",
          "name": "_allocPoint",
          "type": "uint256"
        }
      ],
      "name": "addMinterCollateralType",
      "outputs": [],
      "stateMutability": "nonpayable",
      "type": "function"
    },
    {
      "inputs": [
        {
          "internalType": "address",
          "name": "",
          "type": "address"
        }
      ],
      "name": "ammLpPools",
      "outputs": [
        {
          "internalType": "bool",
          "name": "whitelisted",
          "type": "bool"
        },
        {
          "internalType": "uint256",
          "name": "allocPoint",
          "type": "uint256"
        },
        {
          "internalType": "uint256",
          "name": "lastRewardTs",
          "type": "uint256"
        },
        {
          "internalType": "uint256",
          "name": "accHaloPerShare",
          "type": "uint256"
        }
      ],
      "stateMutability": "view",
      "type": "function"
    },
    {
      "inputs": [],
      "name": "ammLpRewardsRatio",
      "outputs": [
        {
          "internalType": "uint256",
          "name": "",
          "type": "uint256"
        }
      ],
      "stateMutability": "view",
      "type": "function"
    },
    {
      "inputs": [
        {
          "internalType": "address",
          "name": "",
          "type": "address"
        },
        {
          "internalType": "address",
          "name": "",
          "type": "address"
        }
      ],
      "name": "ammLpUserInfo",
      "outputs": [
        {
          "internalType": "uint256",
          "name": "amount",
          "type": "uint256"
        },
        {
          "internalType": "uint256",
          "name": "rewardDebt",
          "type": "uint256"
        }
      ],
      "stateMutability": "view",
      "type": "function"
    },
    {
      "inputs": [],
      "name": "decayBase",
      "outputs": [
        {
          "internalType": "uint256",
          "name": "",
          "type": "uint256"
        }
      ],
      "stateMutability": "view",
      "type": "function"
    },
    {
      "inputs": [
        {
          "internalType": "address",
          "name": "_lpAddress",
          "type": "address"
        },
        {
          "internalType": "uint256",
          "name": "_amount",
          "type": "uint256"
        }
      ],
      "name": "depositAmmLpTokens",
      "outputs": [],
      "stateMutability": "nonpayable",
      "type": "function"
    },
    {
      "inputs": [
        {
          "internalType": "address",
          "name": "_collateralAddress",
          "type": "address"
        },
        {
          "internalType": "address",
          "name": "_account",
          "type": "address"
        },
        {
          "internalType": "uint256",
          "name": "_amount",
          "type": "uint256"
        }
      ],
      "name": "depositMinter",
      "outputs": [],
      "stateMutability": "nonpayable",
      "type": "function"
    },
    {
      "inputs": [],
      "name": "epochLength",
      "outputs": [
        {
          "internalType": "uint256",
          "name": "",
          "type": "uint256"
        }
      ],
      "stateMutability": "view",
      "type": "function"
    },
    {
      "inputs": [],
      "name": "genesisTs",
      "outputs": [
        {
          "internalType": "uint256",
          "name": "",
          "type": "uint256"
        }
      ],
      "stateMutability": "view",
      "type": "function"
    },
    {
      "inputs": [
        {
          "internalType": "address",
          "name": "_lpAddress",
          "type": "address"
        }
      ],
      "name": "getAmmLpPoolInfo",
      "outputs": [
        {
          "components": [
            {
              "internalType": "bool",
              "name": "whitelisted",
              "type": "bool"
            },
            {
              "internalType": "uint256",
              "name": "allocPoint",
              "type": "uint256"
            },
            {
              "internalType": "uint256",
              "name": "lastRewardTs",
              "type": "uint256"
            },
            {
              "internalType": "uint256",
              "name": "accHaloPerShare",
              "type": "uint256"
            }
          ],
          "internalType": "struct Rewards.PoolInfo",
          "name": "",
          "type": "tuple"
        }
      ],
      "stateMutability": "view",
      "type": "function"
    },
    {
      "inputs": [
        {
          "internalType": "address",
          "name": "_collateralAddress",
          "type": "address"
        }
      ],
      "name": "getMinterLpPoolInfo",
      "outputs": [
        {
          "components": [
            {
              "internalType": "bool",
              "name": "whitelisted",
              "type": "bool"
            },
            {
              "internalType": "uint256",
              "name": "allocPoint",
              "type": "uint256"
            },
            {
              "internalType": "uint256",
              "name": "lastRewardTs",
              "type": "uint256"
            },
            {
              "internalType": "uint256",
              "name": "accHaloPerShare",
              "type": "uint256"
            }
          ],
          "internalType": "struct Rewards.PoolInfo",
          "name": "",
          "type": "tuple"
        }
      ],
      "stateMutability": "view",
      "type": "function"
    },
    {
      "inputs": [],
      "name": "haloChestContract",
      "outputs": [
        {
          "internalType": "address",
          "name": "",
          "type": "address"
        }
      ],
      "stateMutability": "view",
      "type": "function"
    },
    {
      "inputs": [],
      "name": "haloTokenAddress",
      "outputs": [
        {
          "internalType": "address",
          "name": "",
          "type": "address"
        }
      ],
      "stateMutability": "view",
      "type": "function"
    },
    {
      "inputs": [
        {
          "internalType": "address",
          "name": "_lpAddress",
          "type": "address"
        }
      ],
      "name": "isValidAmmLp",
      "outputs": [
        {
          "internalType": "bool",
          "name": "",
          "type": "bool"
        }
      ],
      "stateMutability": "view",
      "type": "function"
    },
    {
      "inputs": [
        {
          "internalType": "address",
          "name": "_collateralAddress",
          "type": "address"
        }
      ],
      "name": "isValidMinterLp",
      "outputs": [
        {
          "internalType": "bool",
          "name": "",
          "type": "bool"
        }
      ],
      "stateMutability": "view",
      "type": "function"
    },
    {
      "inputs": [],
      "name": "lastHaloVestRewardTs",
      "outputs": [
        {
          "internalType": "uint256",
          "name": "",
          "type": "uint256"
        }
      ],
      "stateMutability": "view",
      "type": "function"
    },
    {
      "inputs": [],
      "name": "minterContract",
      "outputs": [
        {
          "internalType": "address",
          "name": "",
          "type": "address"
        }
      ],
      "stateMutability": "view",
      "type": "function"
    },
    {
      "inputs": [
        {
          "internalType": "address",
          "name": "",
          "type": "address"
        }
      ],
      "name": "minterLpPools",
      "outputs": [
        {
          "internalType": "bool",
          "name": "whitelisted",
          "type": "bool"
        },
        {
          "internalType": "uint256",
          "name": "allocPoint",
          "type": "uint256"
        },
        {
          "internalType": "uint256",
          "name": "lastRewardTs",
          "type": "uint256"
        },
        {
          "internalType": "uint256",
          "name": "accHaloPerShare",
          "type": "uint256"
        }
      ],
      "stateMutability": "view",
      "type": "function"
    },
    {
      "inputs": [],
      "name": "minterLpRewardsRatio",
      "outputs": [
        {
          "internalType": "uint256",
          "name": "",
          "type": "uint256"
        }
      ],
      "stateMutability": "view",
      "type": "function"
    },
    {
      "inputs": [
        {
          "internalType": "address",
          "name": "",
          "type": "address"
        },
        {
          "internalType": "address",
          "name": "",
          "type": "address"
        }
      ],
      "name": "minterLpUserInfo",
      "outputs": [
        {
          "internalType": "uint256",
          "name": "amount",
          "type": "uint256"
        },
        {
          "internalType": "uint256",
          "name": "rewardDebt",
          "type": "uint256"
        }
      ],
      "stateMutability": "view",
      "type": "function"
    },
    {
      "inputs": [],
      "name": "owner",
      "outputs": [
        {
          "internalType": "address",
          "name": "",
          "type": "address"
        }
      ],
      "stateMutability": "view",
      "type": "function"
    },
    {
      "inputs": [
        {
          "internalType": "address",
          "name": "_lpAddress",
          "type": "address"
        },
        {
          "internalType": "address",
          "name": "_account",
          "type": "address"
        }
      ],
      "name": "pendingAmmLpUserRewards",
      "outputs": [
        {
          "internalType": "uint256",
          "name": "",
          "type": "uint256"
        }
      ],
      "stateMutability": "view",
      "type": "function"
    },
    {
      "inputs": [
        {
          "internalType": "address",
          "name": "_collateralAddress",
          "type": "address"
        },
        {
          "internalType": "address",
          "name": "_account",
          "type": "address"
        }
      ],
      "name": "pendingMinterLpUserRewards",
      "outputs": [
        {
          "internalType": "uint256",
          "name": "",
          "type": "uint256"
        }
      ],
      "stateMutability": "view",
      "type": "function"
    },
    {
      "inputs": [],
      "name": "pendingVestingRewards",
      "outputs": [
        {
          "internalType": "uint256",
          "name": "",
          "type": "uint256"
        }
      ],
      "stateMutability": "view",
      "type": "function"
    },
    {
      "inputs": [],
      "name": "releaseVestedRewards",
      "outputs": [],
      "stateMutability": "nonpayable",
      "type": "function"
    },
    {
      "inputs": [
        {
          "internalType": "address",
          "name": "_lpAddress",
          "type": "address"
        }
      ],
      "name": "removeAmmLp",
      "outputs": [],
      "stateMutability": "nonpayable",
      "type": "function"
    },
    {
      "inputs": [
        {
          "internalType": "address",
          "name": "_collateralAddress",
          "type": "address"
        }
      ],
      "name": "removeMinterCollateralType",
      "outputs": [],
      "stateMutability": "nonpayable",
      "type": "function"
    },
    {
      "inputs": [],
      "name": "renounceOwnership",
      "outputs": [],
      "stateMutability": "nonpayable",
      "type": "function"
    },
    {
      "inputs": [
        {
          "internalType": "address",
          "name": "_lpAddress",
          "type": "address"
        },
        {
          "internalType": "uint256",
          "name": "_allocPoint",
          "type": "uint256"
        }
      ],
      "name": "setAmmLpAlloc",
      "outputs": [],
      "stateMutability": "nonpayable",
      "type": "function"
    },
    {
      "inputs": [
        {
          "internalType": "uint256",
          "name": "_genesisTs",
          "type": "uint256"
        }
      ],
      "name": "setGenesisTs",
      "outputs": [],
      "stateMutability": "nonpayable",
      "type": "function"
    },
    {
      "inputs": [
        {
          "internalType": "address",
          "name": "_haloChest",
          "type": "address"
        }
      ],
      "name": "setHaloChest",
      "outputs": [],
      "stateMutability": "nonpayable",
      "type": "function"
    },
    {
      "inputs": [
        {
          "internalType": "address",
          "name": "_minter",
          "type": "address"
        }
      ],
      "name": "setMinter",
      "outputs": [],
      "stateMutability": "nonpayable",
      "type": "function"
    },
    {
      "inputs": [
        {
          "internalType": "address",
          "name": "_collateralAddress",
          "type": "address"
        },
        {
          "internalType": "uint256",
          "name": "_allocPoint",
          "type": "uint256"
        }
      ],
      "name": "setMinterLpAlloc",
      "outputs": [],
      "stateMutability": "nonpayable",
      "type": "function"
    },
    {
      "inputs": [],
      "name": "startingRewards",
      "outputs": [
        {
          "internalType": "uint256",
          "name": "",
          "type": "uint256"
        }
      ],
      "stateMutability": "view",
      "type": "function"
    },
    {
      "inputs": [],
      "name": "totalAmmLpAllocationPoints",
      "outputs": [
        {
          "internalType": "uint256",
          "name": "",
          "type": "uint256"
        }
      ],
      "stateMutability": "view",
      "type": "function"
    },
    {
      "inputs": [],
      "name": "totalAmmLpAllocs",
      "outputs": [
        {
          "internalType": "uint256",
          "name": "",
          "type": "uint256"
        }
      ],
      "stateMutability": "view",
      "type": "function"
    },
    {
      "inputs": [],
      "name": "totalMinterLpAllocationPoints",
      "outputs": [
        {
          "internalType": "uint256",
          "name": "",
          "type": "uint256"
        }
      ],
      "stateMutability": "view",
      "type": "function"
    },
    {
      "inputs": [],
      "name": "totalMinterLpAllocs",
      "outputs": [
        {
          "internalType": "uint256",
          "name": "",
          "type": "uint256"
        }
      ],
      "stateMutability": "view",
      "type": "function"
    },
    {
      "inputs": [
        {
          "internalType": "address",
          "name": "newOwner",
          "type": "address"
        }
      ],
      "name": "transferOwnership",
      "outputs": [],
      "stateMutability": "nonpayable",
      "type": "function"
    },
    {
      "inputs": [
        {
          "internalType": "address",
          "name": "_lpAddress",
          "type": "address"
        }
      ],
      "name": "updateAmmRewardPool",
      "outputs": [],
      "stateMutability": "nonpayable",
      "type": "function"
    },
    {
      "inputs": [
        {
          "internalType": "address",
          "name": "_collateralAddress",
          "type": "address"
        }
      ],
      "name": "updateMinterRewardPool",
      "outputs": [],
      "stateMutability": "nonpayable",
      "type": "function"
    },
    {
      "inputs": [],
      "name": "vestingRewardsDebt",
      "outputs": [
        {
          "internalType": "uint256",
          "name": "",
          "type": "uint256"
        }
      ],
      "stateMutability": "view",
      "type": "function"
    },
    {
      "inputs": [],
      "name": "vestingRewardsRatio",
      "outputs": [
        {
          "internalType": "uint256",
          "name": "",
          "type": "uint256"
        }
      ],
      "stateMutability": "view",
      "type": "function"
    },
    {
      "inputs": [
        {
          "internalType": "address",
          "name": "_lpAddress",
          "type": "address"
        },
        {
          "internalType": "uint256",
          "name": "_amount",
          "type": "uint256"
        }
      ],
      "name": "withdrawAmmLpTokens",
      "outputs": [],
      "stateMutability": "nonpayable",
      "type": "function"
    },
    {
      "inputs": [
        {
          "internalType": "address",
          "name": "_collateralAddress",
          "type": "address"
        },
        {
          "internalType": "address",
          "name": "_account",
          "type": "address"
        },
        {
          "internalType": "uint256",
          "name": "_amount",
          "type": "uint256"
        }
      ],
      "name": "withdrawMinter",
      "outputs": [],
      "stateMutability": "nonpayable",
      "type": "function"
    },
    {
      "inputs": [
        {
          "internalType": "address",
          "name": "_lpAddress",
          "type": "address"
        }
      ],
      "name": "withdrawPendingAmmLpRewards",
      "outputs": [],
      "stateMutability": "nonpayable",
      "type": "function"
    },
    {
      "inputs": [
        {
          "internalType": "address",
          "name": "_collateralAddress",
          "type": "address"
        },
        {
          "internalType": "address",
          "name": "_account",
          "type": "address"
        }
      ],
      "name": "withdrawPendingMinterLpRewards",
      "outputs": [],
      "stateMutability": "nonpayable",
      "type": "function"
    }
  ],
  "bytecode": "0x60806040523480156200001157600080fd5b50604051620058d0380380620058d0833981810160405262000037919081019062000951565b6000620000496200028860201b60201c565b9050806000806101000a81548173ffffffffffffffffffffffffffffffffffffffff021916908373ffffffffffffffffffffffffffffffffffffffff1602179055508073ffffffffffffffffffffffffffffffffffffffff16600073ffffffffffffffffffffffffffffffffffffffff167f8be0079c531659141344cd1fd0a4f28419497f9722a3daafe3b4186f6b6457e060405160405180910390a3508a600160006101000a81548173ffffffffffffffffffffffffffffffffffffffff021916908373ffffffffffffffffffffffffffffffffffffffff16021790555089600381905550886004819055508760058190555086600681905550856007819055508460088190555083600c60006101000a81548173ffffffffffffffffffffffffffffffffffffffff021916908373ffffffffffffffffffffffffffffffffffffffff16021790555082600281905550600254600e8190555060008090505b82518160ff1610156200020c57620001fe838260ff1681518110620001ca57fe5b602002602001015160000151848360ff1681518110620001e657fe5b6020026020010151602001516200029060201b60201c565b8080600101915050620001a9565b5060008090505b81518160ff161015620002765762000268828260ff16815181106200023457fe5b602002602001015160000151838360ff16815181106200025057fe5b6020026020010151602001516200052960201b60201c565b808060010191505062000213565b50505050505050505050505062000cf4565b600033905090565b620002a06200028860201b60201c565b73ffffffffffffffffffffffffffffffffffffffff16620002c6620007c260201b60201c565b73ffffffffffffffffffffffffffffffffffffffff16146200031f576040517f08c379a0000000000000000000000000000000000000000000000000000000008152600401620003169062000bd6565b60405180910390fd5b60001515601060008473ffffffffffffffffffffffffffffffffffffffff1673ffffffffffffffffffffffffffffffffffffffff16815260200190815260200160002060000160009054906101000a900460ff16151514620003b8576040517f08c379a0000000000000000000000000000000000000000000000000000000008152600401620003af9062000bf8565b60405180910390fd5b60006002544211620003cd57600254620003cf565b425b9050620003ed82600a54620007eb60201b62003a611790919060201c565b600a819055506001601060008573ffffffffffffffffffffffffffffffffffffffff1673ffffffffffffffffffffffffffffffffffffffff16815260200190815260200160002060000160006101000a81548160ff02191690831515021790555081601060008573ffffffffffffffffffffffffffffffffffffffff1673ffffffffffffffffffffffffffffffffffffffff1681526020019081526020016000206001018190555080601060008573ffffffffffffffffffffffffffffffffffffffff1673ffffffffffffffffffffffffffffffffffffffff168152602001908152602001600020600201819055506000601060008573ffffffffffffffffffffffffffffffffffffffff1673ffffffffffffffffffffffffffffffffffffffff16815260200190815260200160002060030181905550505050565b620005396200028860201b60201c565b73ffffffffffffffffffffffffffffffffffffffff166200055f620007c260201b60201c565b73ffffffffffffffffffffffffffffffffffffffff1614620005b8576040517f08c379a0000000000000000000000000000000000000000000000000000000008152600401620005af9062000bd6565b60405180910390fd5b60001515600f60008473ffffffffffffffffffffffffffffffffffffffff1673ffffffffffffffffffffffffffffffffffffffff16815260200190815260200160002060000160009054906101000a900460ff1615151462000651576040517f08c379a0000000000000000000000000000000000000000000000000000000008152600401620006489062000b92565b60405180910390fd5b60006002544211620006665760025462000668565b425b90506200068682600954620007eb60201b62003a611790919060201c565b6009819055506001600f60008573ffffffffffffffffffffffffffffffffffffffff1673ffffffffffffffffffffffffffffffffffffffff16815260200190815260200160002060000160006101000a81548160ff02191690831515021790555081600f60008573ffffffffffffffffffffffffffffffffffffffff1673ffffffffffffffffffffffffffffffffffffffff1681526020019081526020016000206001018190555080600f60008573ffffffffffffffffffffffffffffffffffffffff1673ffffffffffffffffffffffffffffffffffffffff168152602001908152602001600020600201819055506000600f60008573ffffffffffffffffffffffffffffffffffffffff1673ffffffffffffffffffffffffffffffffffffffff16815260200190815260200160002060030181905550505050565b60008060009054906101000a900473ffffffffffffffffffffffffffffffffffffffff16905090565b60008082840190508381101562000839576040517f08c379a0000000000000000000000000000000000000000000000000000000008152600401620008309062000bb4565b60405180910390fd5b8091505092915050565b600081519050620008548162000cc0565b92915050565b600082601f8301126200086c57600080fd5b8151620008836200087d8262000c48565b62000c1a565b91508181835260208401935060208101905083856040840282011115620008a957600080fd5b60005b83811015620008dd5781620008c28882620008e7565b845260208401935060408301925050600181019050620008ac565b5050505092915050565b600060408284031215620008fa57600080fd5b62000906604062000c1a565b90506000620009188482850162000843565b60008301525060206200092e848285016200093a565b60208301525092915050565b6000815190506200094b8162000cda565b92915050565b60008060008060008060008060008060006101608c8e0312156200097457600080fd5b6000620009848e828f0162000843565b9b50506020620009978e828f016200093a565b9a50506040620009aa8e828f016200093a565b9950506060620009bd8e828f016200093a565b9850506080620009d08e828f016200093a565b97505060a0620009e38e828f016200093a565b96505060c0620009f68e828f016200093a565b95505060e062000a098e828f0162000843565b94505061010062000a1d8e828f016200093a565b9350506101208c015167ffffffffffffffff81111562000a3c57600080fd5b62000a4a8e828f016200085a565b9250506101408c015167ffffffffffffffff81111562000a6957600080fd5b62000a778e828f016200085a565b9150509295989b509295989b9093969950565b600062000a9960198362000c71565b91507f414d4d204c5020506f6f6c20616c7265616479206164646564000000000000006000830152602082019050919050565b600062000adb601b8362000c71565b91507f536166654d6174683a206164646974696f6e206f766572666c6f7700000000006000830152602082019050919050565b600062000b1d60208362000c71565b91507f4f776e61626c653a2063616c6c6572206973206e6f7420746865206f776e65726000830152602082019050919050565b600062000b5f601d8362000c71565b91507f436f6c6c61746572616c207479706520616c72656164792061646465640000006000830152602082019050919050565b6000602082019050818103600083015262000bad8162000a8a565b9050919050565b6000602082019050818103600083015262000bcf8162000acc565b9050919050565b6000602082019050818103600083015262000bf18162000b0e565b9050919050565b6000602082019050818103600083015262000c138162000b50565b9050919050565b6000604051905081810181811067ffffffffffffffff8211171562000c3e57600080fd5b8060405250919050565b600067ffffffffffffffff82111562000c6057600080fd5b602082029050602081019050919050565b600082825260208201905092915050565b600062000c8f8262000c96565b9050919050565b600073ffffffffffffffffffffffffffffffffffffffff82169050919050565b6000819050919050565b62000ccb8162000c82565b811462000cd757600080fd5b50565b62000ce58162000cb6565b811462000cf157600080fd5b50565b614bcc8062000d046000396000f3fe608060405234801561001057600080fd5b50600436106102d65760003560e01c806381fd45c311610182578063b5521ad1116100e9578063de20b538116100a2578063f9e6d27c1161007c578063f9e6d27c146108b7578063fa064f7e146108d3578063fca3b5aa146108ef578063ffbbf51f1461090b576102d6565b8063de20b5381461084c578063e3af6d0a1461087d578063f2fde38b1461089b576102d6565b8063b5521ad114610778578063c08fb07a14610794578063c951054f146107c4578063d0f35acc146107e2578063dce902fc146107fe578063dd48a4a81461081c576102d6565b8063987f82da1161013b578063987f82da1461069f5780639c8fc9d1146106bd5780639f9d5a56146106db578063a0bc34eb146106f9578063a47dfb1d14610715578063ab38c64e14610745576102d6565b806381fd45c3146105ed578063851ebfba1461060b5780638a59f331146106295780638da5cb5b1461064557806392f00233146106635780639659291714610681576102d6565b806346216739116102415780636e1abfd5116101fa5780637a40b0a8116101d45780637a40b0a8146105645780637e672039146105825780637f8b14031461059e5780638094e67f146105d1576102d6565b80636e1abfd51461051e5780636feb05121461053c578063715018a61461055a576102d6565b806346216739146104725780634b7200a11461048e5780634e6411c0146104aa57806352b39182146104c857806357d775f8146104e45780636be0f16d14610502576102d6565b806326faafa91161029357806326faafa9146103b257806327585ae8146103ce5780632a570385146103fe5780632e0f26251461041a578063350836ea146104385780633fa3eb9314610454576102d6565b806307ebc26f146102db5780630d5d72ea146102f957806315133f2a1461032957806317aaef1f146103595780631df4d28b1461038a578063249d39e914610394575b600080fd5b6102e3610927565b6040516102f09190614ab4565b60405180910390f35b610313600480360361030e9190810190614084565b61092d565b6040516103209190614a99565b60405180910390f35b610343600480360361033e91908101906140ad565b6109bf565b6040516103509190614ab4565b60405180910390f35b610373600480360361036e91908101906140ad565b610ad8565b604051610381929190614acf565b60405180910390f35b610392610b09565b005b61039c610dff565b6040516103a99190614ab4565b60405180910390f35b6103cc60048036036103c79190810190614084565b610e05565b005b6103e860048036036103e39190810190614084565b610f35565b6040516103f59190614819565b60405180910390f35b61041860048036036104139190810190614084565b610f8e565b005b6104226111b1565b60405161042f9190614ab4565b60405180910390f35b610452600480360361044d91908101906140e9565b6111bd565b005b61045c6114df565b6040516104699190614767565b60405180910390f35b61048c6004803603610487919081019061419d565b611505565b005b6104a860048036036104a39190810190614084565b6115cf565b005b6104b26117a5565b6040516104bf9190614ab4565b60405180910390f35b6104e260048036036104dd9190810190614138565b61194c565b005b6104ec611c0e565b6040516104f99190614ab4565b60405180910390f35b61051c60048036036105179190810190614084565b611c14565b005b610526611de1565b6040516105339190614ab4565b60405180910390f35b610544611de7565b6040516105519190614767565b60405180910390f35b610562611e0d565b005b61056c611f48565b6040516105799190614ab4565b60405180910390f35b61059c60048036036105979190810190614138565b611f4e565b005b6105b860048036036105b39190810190614084565b6121c8565b6040516105c89493929190614834565b60405180910390f35b6105eb60048036036105e69190810190614138565b612205565b005b6105f561247f565b6040516106029190614ab4565b60405180910390f35b610613612485565b6040516106209190614ab4565b60405180910390f35b610643600480360361063e9190810190614138565b61248b565b005b61064d612657565b60405161065a9190614767565b60405180910390f35b61066b612680565b6040516106789190614767565b60405180910390f35b6106896126a6565b6040516106969190614ab4565b60405180910390f35b6106a76126ac565b6040516106b49190614ab4565b60405180910390f35b6106c56126b2565b6040516106d29190614ab4565b60405180910390f35b6106e36126b8565b6040516106f09190614ab4565b60405180910390f35b610713600480360361070e9190810190614138565b6126be565b005b61072f600480360361072a9190810190614084565b6129df565b60405161073c9190614a99565b60405180910390f35b61075f600480360361075a9190810190614084565b612a71565b60405161076f9493929190614834565b60405180910390f35b610792600480360361078d9190810190614084565b612aae565b005b6107ae60048036036107a99190810190614084565b612c16565b6040516107bb9190614819565b60405180910390f35b6107cc612c6f565b6040516107d99190614ab4565b60405180910390f35b6107fc60048036036107f791908101906140e9565b612c79565b005b610806612f3e565b6040516108139190614ab4565b60405180910390f35b610836600480360361083191908101906140ad565b612f48565b6040516108439190614ab4565b60405180910390f35b610866600480360361086191908101906140ad565b613061565b604051610874929190614acf565b60405180910390f35b610885613092565b6040516108929190614ab4565b60405180910390f35b6108b560048036036108b09190810190614084565b613098565b005b6108d160048036036108cc9190810190614138565b613242565b005b6108ed60048036036108e891908101906140ad565b61340e565b005b61090960048036036109049190810190614084565b613607565b005b61092560048036036109209190810190614084565b6136c7565b005b60085481565b610935614006565b600f60008373ffffffffffffffffffffffffffffffffffffffff1673ffffffffffffffffffffffffffffffffffffffff1681526020019081526020016000206040518060800160405290816000820160009054906101000a900460ff1615151515815260200160018201548152602001600282015481526020016003820154815250509050919050565b600080601060008573ffffffffffffffffffffffffffffffffffffffff1673ffffffffffffffffffffffffffffffffffffffff16815260200190815260200160002090506000601260008673ffffffffffffffffffffffffffffffffffffffff1673ffffffffffffffffffffffffffffffffffffffff16815260200190815260200160002060008573ffffffffffffffffffffffffffffffffffffffff1673ffffffffffffffffffffffffffffffffffffffff1681526020019081526020016000209050610ace8160010154610ac0670de0b6b3a7640000610ab2866003015486600001546138c890919063ffffffff16565b61393890919063ffffffff16565b61398e90919063ffffffff16565b9250505092915050565b6011602052816000526040600020602052806000526040600020600091509150508060000154908060010154905082565b610b116139de565b73ffffffffffffffffffffffffffffffffffffffff16610b2f612657565b73ffffffffffffffffffffffffffffffffffffffff1614610b85576040517f08c379a0000000000000000000000000000000000000000000000000000000008152600401610b7c906149b9565b60405180910390fd5b600e544211610bc9576040517f08c379a0000000000000000000000000000000000000000000000000000000008152600401610bc0906149d9565b60405180910390fd5b6000610bf4600554610be66002544261398e90919063ffffffff16565b61393890919063ffffffff16565b90506000610c32670de0b6b3a7640000610c24610c13600454866139e6565b6003546138c890919063ffffffff16565b61393890919063ffffffff16565b90506000610c9f600554610c91670de0b6b3a7640000610c83610c74610c63896005546138c890919063ffffffff16565b600254613a6190919063ffffffff16565b4261398e90919063ffffffff16565b6138c890919063ffffffff16565b61393890919063ffffffff16565b90506000610cdd670de0b6b3a7640000610ccf610cbe60045488613ab6565b6003546138c890919063ffffffff16565b61393890919063ffffffff16565b90506000610d2084610d12670de0b6b3a7640000610d0486886138c890919063ffffffff16565b61393890919063ffffffff16565b613a6190919063ffffffff16565b90506000610d61600b54610d53612710610d45600854876138c890919063ffffffff16565b61393890919063ffffffff16565b61398e90919063ffffffff16565b9050610d8c612710610d7e600854856138c890919063ffffffff16565b61393890919063ffffffff16565b600b81905550610dbe600d60009054906101000a900473ffffffffffffffffffffffffffffffffffffffff1682613b19565b7fe9f4f5ffd3f9d662eb95b72f8859ab49cb9e4f68ec3f1c7281b7afdf88c7f5708142604051610def929190614acf565b60405180910390a1505050505050565b61271081565b610e0d6139de565b73ffffffffffffffffffffffffffffffffffffffff16610e2b612657565b73ffffffffffffffffffffffffffffffffffffffff1614610e81576040517f08c379a0000000000000000000000000000000000000000000000000000000008152600401610e78906149b9565b60405180910390fd5b600073ffffffffffffffffffffffffffffffffffffffff168173ffffffffffffffffffffffffffffffffffffffff161415610ef1576040517f08c379a0000000000000000000000000000000000000000000000000000000008152600401610ee890614899565b60405180910390fd5b80600d60006101000a81548173ffffffffffffffffffffffffffffffffffffffff021916908373ffffffffffffffffffffffffffffffffffffffff16021790555050565b6000600f60008373ffffffffffffffffffffffffffffffffffffffff1673ffffffffffffffffffffffffffffffffffffffff16815260200190815260200160002060000160009054906101000a900460ff169050919050565b6000601060008373ffffffffffffffffffffffffffffffffffffffff1673ffffffffffffffffffffffffffffffffffffffff168152602001908152602001600020905080600201544211610fe257506111ae565b6000600c60009054906101000a900473ffffffffffffffffffffffffffffffffffffffff1673ffffffffffffffffffffffffffffffffffffffff16630b31a52e846040518263ffffffff1660e01b815260040161103f9190614767565b60206040518083038186803b15801561105757600080fd5b505afa15801561106b573d6000803e3d6000fd5b505050506040513d601f19601f8201168201806040525061108f91908101906141c6565b905060008114156110aa5742826002018190555050506111ae565b60006110b98360020154613d3b565b90506000611110612710611102600a546110f488600101546110e6600654896138c890919063ffffffff16565b6138c890919063ffffffff16565b61393890919063ffffffff16565b61393890919063ffffffff16565b905061115561114284611134670de0b6b3a7640000856138c890919063ffffffff16565b61393890919063ffffffff16565b8560030154613a6190919063ffffffff16565b84600301819055504284600201819055507fdf743bf6b1f64a5f59f98d97e8a94f86a88790d9759826d6824f25743f4d293b85856003015486600201546040516111a1939291906147e2565b60405180910390a1505050505b50565b670de0b6b3a764000081565b600c60009054906101000a900473ffffffffffffffffffffffffffffffffffffffff1673ffffffffffffffffffffffffffffffffffffffff163373ffffffffffffffffffffffffffffffffffffffff161461124d576040517f08c379a000000000000000000000000000000000000000000000000000000000815260040161124490614a59565b60405180910390fd5b60011515601060008573ffffffffffffffffffffffffffffffffffffffff1673ffffffffffffffffffffffffffffffffffffffff16815260200190815260200160002060000160009054906101000a900460ff161515146112e3576040517f08c379a00000000000000000000000000000000000000000000000000000000081526004016112da90614a39565b60405180910390fd5b6000601060008573ffffffffffffffffffffffffffffffffffffffff1673ffffffffffffffffffffffffffffffffffffffff16815260200190815260200160002090506000601260008673ffffffffffffffffffffffffffffffffffffffff1673ffffffffffffffffffffffffffffffffffffffff16815260200190815260200160002060008573ffffffffffffffffffffffffffffffffffffffff1673ffffffffffffffffffffffffffffffffffffffff16815260200190815260200160002090506113af85610f8e565b60008160000154111561141757600061140982600101546113fb670de0b6b3a76400006113ed876003015487600001546138c890919063ffffffff16565b61393890919063ffffffff16565b61398e90919063ffffffff16565b90506114158582613b19565b505b61142e838260000154613a6190919063ffffffff16565b816000018190555061146b670de0b6b3a764000061145d846003015484600001546138c890919063ffffffff16565b61393890919063ffffffff16565b81600101819055508473ffffffffffffffffffffffffffffffffffffffff168473ffffffffffffffffffffffffffffffffffffffff167f32538c6bb2ec8c7ea8b13aa28db1ac9d51b8f53f3c7192f686825fac29612c8a856040516114d09190614ab4565b60405180910390a35050505050565b600160009054906101000a900473ffffffffffffffffffffffffffffffffffffffff1681565b61150d6139de565b73ffffffffffffffffffffffffffffffffffffffff1661152b612657565b73ffffffffffffffffffffffffffffffffffffffff1614611581576040517f08c379a0000000000000000000000000000000000000000000000000000000008152600401611578906149b9565b60405180910390fd5b60025442106115c5576040517f08c379a00000000000000000000000000000000000000000000000000000000081526004016115bc90614a19565b60405180910390fd5b8060028190555050565b6115d76139de565b73ffffffffffffffffffffffffffffffffffffffff166115f5612657565b73ffffffffffffffffffffffffffffffffffffffff161461164b576040517f08c379a0000000000000000000000000000000000000000000000000000000008152600401611642906149b9565b60405180910390fd5b60011515601060008373ffffffffffffffffffffffffffffffffffffffff1673ffffffffffffffffffffffffffffffffffffffff16815260200190815260200160002060000160009054906101000a900460ff161515146116e1576040517f08c379a00000000000000000000000000000000000000000000000000000000081526004016116d890614919565b60405180910390fd5b6116ea81610f8e565b611741601060008373ffffffffffffffffffffffffffffffffffffffff1673ffffffffffffffffffffffffffffffffffffffff16815260200190815260200160002060010154600a5461398e90919063ffffffff16565b600a819055506000601060008373ffffffffffffffffffffffffffffffffffffffff1673ffffffffffffffffffffffffffffffffffffffff16815260200190815260200160002060000160006101000a81548160ff02191690831515021790555050565b6000806117d16005546117c36002544261398e90919063ffffffff16565b61393890919063ffffffff16565b9050600061180f670de0b6b3a76400006118016117f0600454866139e6565b6003546138c890919063ffffffff16565b61393890919063ffffffff16565b9050600061187c60055461186e670de0b6b3a7640000611860611851611840896005546138c890919063ffffffff16565b600254613a6190919063ffffffff16565b4261398e90919063ffffffff16565b6138c890919063ffffffff16565b61393890919063ffffffff16565b905060006118ba670de0b6b3a76400006118ac61189b60045488613ab6565b6003546138c890919063ffffffff16565b61393890919063ffffffff16565b905060006118fd846118ef670de0b6b3a76400006118e186886138c890919063ffffffff16565b61393890919063ffffffff16565b613a6190919063ffffffff16565b9050600061193e612710611930600854611922600b548761398e90919063ffffffff16565b6138c890919063ffffffff16565b61393890919063ffffffff16565b905080965050505050505090565b6000600f60008473ffffffffffffffffffffffffffffffffffffffff1673ffffffffffffffffffffffffffffffffffffffff16815260200190815260200160002090506000601160008573ffffffffffffffffffffffffffffffffffffffff1673ffffffffffffffffffffffffffffffffffffffff16815260200190815260200160002060003373ffffffffffffffffffffffffffffffffffffffff1673ffffffffffffffffffffffffffffffffffffffff16815260200190815260200160002090508281600001541015611a56576040517f08c379a0000000000000000000000000000000000000000000000000000000008152600401611a4d906148f9565b60405180910390fd5b611a5f846136c7565b6000611aac8260010154611a9e670de0b6b3a7640000611a90876003015487600001546138c890919063ffffffff16565b61393890919063ffffffff16565b61398e90919063ffffffff16565b9050611ab83382613b19565b611acf84836000015461398e90919063ffffffff16565b8260000181905550611b0c670de0b6b3a7640000611afe856003015485600001546138c890919063ffffffff16565b61393890919063ffffffff16565b82600101819055508473ffffffffffffffffffffffffffffffffffffffff1663a9059cbb33866040518363ffffffff1660e01b8152600401611b4f9291906147b9565b602060405180830381600087803b158015611b6957600080fd5b505af1158015611b7d573d6000803e3d6000fd5b505050506040513d601f19601f82011682018060405250611ba19190810190614174565b508473ffffffffffffffffffffffffffffffffffffffff163373ffffffffffffffffffffffffffffffffffffffff167fb30853994d7be5b52847e794d1ef030e1fa4936bdc2bd69be6f7bcfc0f231ed986604051611bff9190614ab4565b60405180910390a35050505050565b60055481565b611c1c6139de565b73ffffffffffffffffffffffffffffffffffffffff16611c3a612657565b73ffffffffffffffffffffffffffffffffffffffff1614611c90576040517f08c379a0000000000000000000000000000000000000000000000000000000008152600401611c87906149b9565b60405180910390fd5b60011515600f60008373ffffffffffffffffffffffffffffffffffffffff1673ffffffffffffffffffffffffffffffffffffffff16815260200190815260200160002060000160009054906101000a900460ff16151514611d26576040517f08c379a0000000000000000000000000000000000000000000000000000000008152600401611d1d90614999565b60405180910390fd5b611d7d600f60008373ffffffffffffffffffffffffffffffffffffffff1673ffffffffffffffffffffffffffffffffffffffff1681526020019081526020016000206001015460095461398e90919063ffffffff16565b6009819055506000600f60008373ffffffffffffffffffffffffffffffffffffffff1673ffffffffffffffffffffffffffffffffffffffff16815260200190815260200160002060000160006101000a81548160ff02191690831515021790555050565b60095481565b600d60009054906101000a900473ffffffffffffffffffffffffffffffffffffffff1681565b611e156139de565b73ffffffffffffffffffffffffffffffffffffffff16611e33612657565b73ffffffffffffffffffffffffffffffffffffffff1614611e89576040517f08c379a0000000000000000000000000000000000000000000000000000000008152600401611e80906149b9565b60405180910390fd5b600073ffffffffffffffffffffffffffffffffffffffff166000809054906101000a900473ffffffffffffffffffffffffffffffffffffffff1673ffffffffffffffffffffffffffffffffffffffff167f8be0079c531659141344cd1fd0a4f28419497f9722a3daafe3b4186f6b6457e060405160405180910390a360008060006101000a81548173ffffffffffffffffffffffffffffffffffffffff021916908373ffffffffffffffffffffffffffffffffffffffff160217905550565b60075481565b611f566139de565b73ffffffffffffffffffffffffffffffffffffffff16611f74612657565b73ffffffffffffffffffffffffffffffffffffffff1614611fca576040517f08c379a0000000000000000000000000000000000000000000000000000000008152600401611fc1906149b9565b60405180910390fd5b60001515601060008473ffffffffffffffffffffffffffffffffffffffff1673ffffffffffffffffffffffffffffffffffffffff16815260200190815260200160002060000160009054906101000a900460ff16151514612060576040517f08c379a0000000000000000000000000000000000000000000000000000000008152600401612057906149f9565b60405180910390fd5b6000600254421161207357600254612075565b425b905061208c82600a54613a6190919063ffffffff16565b600a819055506001601060008573ffffffffffffffffffffffffffffffffffffffff1673ffffffffffffffffffffffffffffffffffffffff16815260200190815260200160002060000160006101000a81548160ff02191690831515021790555081601060008573ffffffffffffffffffffffffffffffffffffffff1673ffffffffffffffffffffffffffffffffffffffff1681526020019081526020016000206001018190555080601060008573ffffffffffffffffffffffffffffffffffffffff1673ffffffffffffffffffffffffffffffffffffffff168152602001908152602001600020600201819055506000601060008573ffffffffffffffffffffffffffffffffffffffff1673ffffffffffffffffffffffffffffffffffffffff16815260200190815260200160002060030181905550505050565b60106020528060005260406000206000915090508060000160009054906101000a900460ff16908060010154908060020154908060030154905084565b61220d6139de565b73ffffffffffffffffffffffffffffffffffffffff1661222b612657565b73ffffffffffffffffffffffffffffffffffffffff1614612281576040517f08c379a0000000000000000000000000000000000000000000000000000000008152600401612278906149b9565b60405180910390fd5b60001515600f60008473ffffffffffffffffffffffffffffffffffffffff1673ffffffffffffffffffffffffffffffffffffffff16815260200190815260200160002060000160009054906101000a900460ff16151514612317576040517f08c379a000000000000000000000000000000000000000000000000000000000815260040161230e90614879565b60405180910390fd5b6000600254421161232a5760025461232c565b425b905061234382600954613a6190919063ffffffff16565b6009819055506001600f60008573ffffffffffffffffffffffffffffffffffffffff1673ffffffffffffffffffffffffffffffffffffffff16815260200190815260200160002060000160006101000a81548160ff02191690831515021790555081600f60008573ffffffffffffffffffffffffffffffffffffffff1673ffffffffffffffffffffffffffffffffffffffff1681526020019081526020016000206001018190555080600f60008573ffffffffffffffffffffffffffffffffffffffff1673ffffffffffffffffffffffffffffffffffffffff168152602001908152602001600020600201819055506000600f60008573ffffffffffffffffffffffffffffffffffffffff1673ffffffffffffffffffffffffffffffffffffffff16815260200190815260200160002060030181905550505050565b60035481565b600e5481565b6124936139de565b73ffffffffffffffffffffffffffffffffffffffff166124b1612657565b73ffffffffffffffffffffffffffffffffffffffff1614612507576040517f08c379a00000000000000000000000000000000000000000000000000000000081526004016124fe906149b9565b60405180910390fd5b60011515601060008473ffffffffffffffffffffffffffffffffffffffff1673ffffffffffffffffffffffffffffffffffffffff16815260200190815260200160002060000160009054906101000a900460ff1615151461259d576040517f08c379a000000000000000000000000000000000000000000000000000000000815260040161259490614919565b60405180910390fd5b612606816125f8601060008673ffffffffffffffffffffffffffffffffffffffff1673ffffffffffffffffffffffffffffffffffffffff16815260200190815260200160002060010154600a5461398e90919063ffffffff16565b613a6190919063ffffffff16565b600a8190555080601060008473ffffffffffffffffffffffffffffffffffffffff1673ffffffffffffffffffffffffffffffffffffffff168152602001908152602001600020600101819055505050565b60008060009054906101000a900473ffffffffffffffffffffffffffffffffffffffff16905090565b600c60009054906101000a900473ffffffffffffffffffffffffffffffffffffffff1681565b600a5481565b600b5481565b60065481565b60045481565b60011515600f60008473ffffffffffffffffffffffffffffffffffffffff1673ffffffffffffffffffffffffffffffffffffffff16815260200190815260200160002060000160009054906101000a900460ff16151514612754576040517f08c379a000000000000000000000000000000000000000000000000000000000815260040161274b90614a79565b60405180910390fd5b6000600f60008473ffffffffffffffffffffffffffffffffffffffff1673ffffffffffffffffffffffffffffffffffffffff16815260200190815260200160002090506000601160008573ffffffffffffffffffffffffffffffffffffffff1673ffffffffffffffffffffffffffffffffffffffff16815260200190815260200160002060003373ffffffffffffffffffffffffffffffffffffffff1673ffffffffffffffffffffffffffffffffffffffff1681526020019081526020016000209050612820846136c7565b60008160000154111561288857600061287a826001015461286c670de0b6b3a764000061285e876003015487600001546138c890919063ffffffff16565b61393890919063ffffffff16565b61398e90919063ffffffff16565b90506128863382613b19565b505b8373ffffffffffffffffffffffffffffffffffffffff166323b872dd3330866040518463ffffffff1660e01b81526004016128c593929190614782565b602060405180830381600087803b1580156128df57600080fd5b505af11580156128f3573d6000803e3d6000fd5b505050506040513d601f19601f820116820180604052506129179190810190614174565b5061292f838260000154613a6190919063ffffffff16565b816000018190555061296c670de0b6b3a764000061295e846003015484600001546138c890919063ffffffff16565b61393890919063ffffffff16565b81600101819055508373ffffffffffffffffffffffffffffffffffffffff163373ffffffffffffffffffffffffffffffffffffffff167f935b6074244294b0941041a1ad6402bc6a91074c14bd7b6661646415d6090120856040516129d19190614ab4565b60405180910390a350505050565b6129e7614006565b601060008373ffffffffffffffffffffffffffffffffffffffff1673ffffffffffffffffffffffffffffffffffffffff1681526020019081526020016000206040518060800160405290816000820160009054906101000a900460ff1615151515815260200160018201548152602001600282015481526020016003820154815250509050919050565b600f6020528060005260406000206000915090508060000160009054906101000a900460ff16908060010154908060020154908060030154905084565b6000600f60008373ffffffffffffffffffffffffffffffffffffffff1673ffffffffffffffffffffffffffffffffffffffff16815260200190815260200160002090506000601160008473ffffffffffffffffffffffffffffffffffffffff1673ffffffffffffffffffffffffffffffffffffffff16815260200190815260200160002060003373ffffffffffffffffffffffffffffffffffffffff1673ffffffffffffffffffffffffffffffffffffffff1681526020019081526020016000209050612b7a836136c7565b6000612bc78260010154612bb9670de0b6b3a7640000612bab876003015487600001546138c890919063ffffffff16565b61393890919063ffffffff16565b61398e90919063ffffffff16565b9050612bfe670de0b6b3a7640000612bf0856003015485600001546138c890919063ffffffff16565b61393890919063ffffffff16565b8260010181905550612c103382613b19565b50505050565b6000601060008373ffffffffffffffffffffffffffffffffffffffff1673ffffffffffffffffffffffffffffffffffffffff16815260200190815260200160002060000160009054906101000a900460ff169050919050565b6000600954905090565b600c60009054906101000a900473ffffffffffffffffffffffffffffffffffffffff1673ffffffffffffffffffffffffffffffffffffffff163373ffffffffffffffffffffffffffffffffffffffff1614612d09576040517f08c379a0000000000000000000000000000000000000000000000000000000008152600401612d0090614a59565b60405180910390fd5b6000601060008573ffffffffffffffffffffffffffffffffffffffff1673ffffffffffffffffffffffffffffffffffffffff16815260200190815260200160002090506000601260008673ffffffffffffffffffffffffffffffffffffffff1673ffffffffffffffffffffffffffffffffffffffff16815260200190815260200160002060008573ffffffffffffffffffffffffffffffffffffffff1673ffffffffffffffffffffffffffffffffffffffff16815260200190815260200160002090508281600001541015612e13576040517f08c379a0000000000000000000000000000000000000000000000000000000008152600401612e0a906148f9565b60405180910390fd5b612e1c85610f8e565b6000612e698260010154612e5b670de0b6b3a7640000612e4d876003015487600001546138c890919063ffffffff16565b61393890919063ffffffff16565b61398e90919063ffffffff16565b9050612e758582613b19565b612e8c84836000015461398e90919063ffffffff16565b8260000181905550612ec9670de0b6b3a7640000612ebb856003015485600001546138c890919063ffffffff16565b61393890919063ffffffff16565b82600101819055508573ffffffffffffffffffffffffffffffffffffffff168573ffffffffffffffffffffffffffffffffffffffff167faf3386f6c83fe39659254865278640558c553b44d568b9e7a3e03f9c0cf00a2a86604051612f2e9190614ab4565b60405180910390a3505050505050565b6000600a54905090565b600080600f60008573ffffffffffffffffffffffffffffffffffffffff1673ffffffffffffffffffffffffffffffffffffffff16815260200190815260200160002090506000601160008673ffffffffffffffffffffffffffffffffffffffff1673ffffffffffffffffffffffffffffffffffffffff16815260200190815260200160002060008573ffffffffffffffffffffffffffffffffffffffff1673ffffffffffffffffffffffffffffffffffffffff16815260200190815260200160002090506130578160010154613049670de0b6b3a764000061303b866003015486600001546138c890919063ffffffff16565b61393890919063ffffffff16565b61398e90919063ffffffff16565b9250505092915050565b6012602052816000526040600020602052806000526040600020600091509150508060000154908060010154905082565b60025481565b6130a06139de565b73ffffffffffffffffffffffffffffffffffffffff166130be612657565b73ffffffffffffffffffffffffffffffffffffffff1614613114576040517f08c379a000000000000000000000000000000000000000000000000000000000815260040161310b906149b9565b60405180910390fd5b600073ffffffffffffffffffffffffffffffffffffffff168173ffffffffffffffffffffffffffffffffffffffff161415613184576040517f08c379a000000000000000000000000000000000000000000000000000000000815260040161317b906148b9565b60405180910390fd5b8073ffffffffffffffffffffffffffffffffffffffff166000809054906101000a900473ffffffffffffffffffffffffffffffffffffffff1673ffffffffffffffffffffffffffffffffffffffff167f8be0079c531659141344cd1fd0a4f28419497f9722a3daafe3b4186f6b6457e060405160405180910390a3806000806101000a81548173ffffffffffffffffffffffffffffffffffffffff021916908373ffffffffffffffffffffffffffffffffffffffff16021790555050565b61324a6139de565b73ffffffffffffffffffffffffffffffffffffffff16613268612657565b73ffffffffffffffffffffffffffffffffffffffff16146132be576040517f08c379a00000000000000000000000000000000000000000000000000000000081526004016132b5906149b9565b60405180910390fd5b60011515600f60008473ffffffffffffffffffffffffffffffffffffffff1673ffffffffffffffffffffffffffffffffffffffff16815260200190815260200160002060000160009054906101000a900460ff16151514613354576040517f08c379a000000000000000000000000000000000000000000000000000000000815260040161334b90614999565b60405180910390fd5b6133bd816133af600f60008673ffffffffffffffffffffffffffffffffffffffff1673ffffffffffffffffffffffffffffffffffffffff1681526020019081526020016000206001015460095461398e90919063ffffffff16565b613a6190919063ffffffff16565b60098190555080600f60008473ffffffffffffffffffffffffffffffffffffffff1673ffffffffffffffffffffffffffffffffffffffff168152602001908152602001600020600101819055505050565b600c60009054906101000a900473ffffffffffffffffffffffffffffffffffffffff1673ffffffffffffffffffffffffffffffffffffffff163373ffffffffffffffffffffffffffffffffffffffff161461349e576040517f08c379a000000000000000000000000000000000000000000000000000000000815260040161349590614a59565b60405180910390fd5b6000601060008473ffffffffffffffffffffffffffffffffffffffff1673ffffffffffffffffffffffffffffffffffffffff16815260200190815260200160002090506000601260008573ffffffffffffffffffffffffffffffffffffffff1673ffffffffffffffffffffffffffffffffffffffff16815260200190815260200160002060008473ffffffffffffffffffffffffffffffffffffffff1673ffffffffffffffffffffffffffffffffffffffff168152602001908152602001600020905061356a84610f8e565b60006135b782600101546135a9670de0b6b3a764000061359b876003015487600001546138c890919063ffffffff16565b61393890919063ffffffff16565b61398e90919063ffffffff16565b90506135ee670de0b6b3a76400006135e0856003015485600001546138c890919063ffffffff16565b61393890919063ffffffff16565b82600101819055506136008482613b19565b5050505050565b61360f6139de565b73ffffffffffffffffffffffffffffffffffffffff1661362d612657565b73ffffffffffffffffffffffffffffffffffffffff1614613683576040517f08c379a000000000000000000000000000000000000000000000000000000000815260040161367a906149b9565b60405180910390fd5b80600c60006101000a81548173ffffffffffffffffffffffffffffffffffffffff021916908373ffffffffffffffffffffffffffffffffffffffff16021790555050565b6000600f60008373ffffffffffffffffffffffffffffffffffffffff1673ffffffffffffffffffffffffffffffffffffffff16815260200190815260200160002090508060020154421161371b57506138c5565b60008273ffffffffffffffffffffffffffffffffffffffff166370a08231306040518263ffffffff1660e01b81526004016137569190614767565b60206040518083038186803b15801561376e57600080fd5b505afa158015613782573d6000803e3d6000fd5b505050506040513d601f19601f820116820180604052506137a691908101906141c6565b905060008114156137c15742826002018190555050506138c5565b60006137d08360020154613d3b565b9050600061382761271061381960095461380b88600101546137fd600754896138c890919063ffffffff16565b6138c890919063ffffffff16565b61393890919063ffffffff16565b61393890919063ffffffff16565b905061386c6138598461384b670de0b6b3a7640000856138c890919063ffffffff16565b61393890919063ffffffff16565b8560030154613a6190919063ffffffff16565b84600301819055504284600201819055507f13bafede4a711e2eb5308ca8fd9ef41be6718f4068a7110f71e10d2410138d5785856003015486600201546040516138b8939291906147e2565b60405180910390a1505050505b50565b6000808314156138db5760009050613932565b60008284029050828482816138ec57fe5b041461392d576040517f08c379a000000000000000000000000000000000000000000000000000000000815260040161392490614979565b60405180910390fd5b809150505b92915050565b600080821161397c576040517f08c379a000000000000000000000000000000000000000000000000000000000815260040161397390614959565b60405180910390fd5b81838161398557fe5b04905092915050565b6000828211156139d3576040517f08c379a00000000000000000000000000000000000000000000000000000000081526004016139ca90614939565b60405180910390fd5b818303905092915050565b600033905090565b600080670de0b6b3a76400009050600080600090505b84811015613a5557613a31670de0b6b3a7640000613a2388866138c890919063ffffffff16565b61393890919063ffffffff16565b9250613a468383613a6190919063ffffffff16565b915080806001019150506139fc565b50809250505092915050565b600080828401905083811015613aac576040517f08c379a0000000000000000000000000000000000000000000000000000000008152600401613aa3906148d9565b60405180910390fd5b8091505092915050565b600080670de0b6b3a7640000905060008090505b83811015613b0e57613aff670de0b6b3a7640000613af187856138c890919063ffffffff16565b61393890919063ffffffff16565b91508080600101915050613aca565b508091505092915050565b6000600160009054906101000a900473ffffffffffffffffffffffffffffffffffffffff1673ffffffffffffffffffffffffffffffffffffffff166370a08231306040518263ffffffff1660e01b8152600401613b769190614767565b60206040518083038186803b158015613b8e57600080fd5b505afa158015613ba2573d6000803e3d6000fd5b505050506040513d601f19601f82011682018060405250613bc691908101906141c6565b905080821115613c8557600160009054906101000a900473ffffffffffffffffffffffffffffffffffffffff1673ffffffffffffffffffffffffffffffffffffffff1663a9059cbb84836040518363ffffffff1660e01b8152600401613c2d9291906147b9565b602060405180830381600087803b158015613c4757600080fd5b505af1158015613c5b573d6000803e3d6000fd5b505050506040513d601f19601f82011682018060405250613c7f9190810190614174565b50613d36565b600160009054906101000a900473ffffffffffffffffffffffffffffffffffffffff1673ffffffffffffffffffffffffffffffffffffffff1663a9059cbb84846040518363ffffffff1660e01b8152600401613ce29291906147b9565b602060405180830381600087803b158015613cfc57600080fd5b505af1158015613d10573d6000803e3d6000fd5b505050506040513d601f19601f82011682018060405250613d349190810190614174565b505b505050565b600080613d67600554613d596002548661398e90919063ffffffff16565b61393890919063ffffffff16565b90506000613da5670de0b6b3a7640000613d97613d86600454866139e6565b6003546138c890919063ffffffff16565b61393890919063ffffffff16565b90506000613e12600554613e04670de0b6b3a7640000613df6613de7613dd6896005546138c890919063ffffffff16565b600254613a6190919063ffffffff16565b8a61398e90919063ffffffff16565b6138c890919063ffffffff16565b61393890919063ffffffff16565b90506000613e50670de0b6b3a7640000613e42613e3160045488613ab6565b6003546138c890919063ffffffff16565b61393890919063ffffffff16565b90506000613e9384613e85670de0b6b3a7640000613e7786886138c890919063ffffffff16565b61393890919063ffffffff16565b613a6190919063ffffffff16565b9050613ebe600554613eb06002544261398e90919063ffffffff16565b61393890919063ffffffff16565b9450613efa670de0b6b3a7640000613eec613edb600454896139e6565b6003546138c890919063ffffffff16565b61393890919063ffffffff16565b9350613f65600554613f57670de0b6b3a7640000613f49613f3a613f298b6005546138c890919063ffffffff16565b600254613a6190919063ffffffff16565b4261398e90919063ffffffff16565b6138c890919063ffffffff16565b61393890919063ffffffff16565b9250613fa1670de0b6b3a7640000613f93613f8260045489613ab6565b6003546138c890919063ffffffff16565b61393890919063ffffffff16565b91506000613fe485613fd6670de0b6b3a7640000613fc887896138c890919063ffffffff16565b61393890919063ffffffff16565b613a6190919063ffffffff16565b9050613ff9828261398e90919063ffffffff16565b9650505050505050919050565b60405180608001604052806000151581526020016000815260200160008152602001600081525090565b60008135905061403f81614b51565b92915050565b60008151905061405481614b68565b92915050565b60008135905061406981614b7f565b92915050565b60008151905061407e81614b7f565b92915050565b60006020828403121561409657600080fd5b60006140a484828501614030565b91505092915050565b600080604083850312156140c057600080fd5b60006140ce85828601614030565b92505060206140df85828601614030565b9150509250929050565b6000806000606084860312156140fe57600080fd5b600061410c86828701614030565b935050602061411d86828701614030565b925050604061412e8682870161405a565b9150509250925092565b6000806040838503121561414b57600080fd5b600061415985828601614030565b925050602061416a8582860161405a565b9150509250929050565b60006020828403121561418657600080fd5b600061419484828501614045565b91505092915050565b6000602082840312156141af57600080fd5b60006141bd8482850161405a565b91505092915050565b6000602082840312156141d857600080fd5b60006141e68482850161406f565b91505092915050565b6141f881614b09565b82525050565b61420781614b1b565b82525050565b61421681614b1b565b82525050565b6000614229601983614af8565b91507f414d4d204c5020506f6f6c20616c7265616479206164646564000000000000006000830152602082019050919050565b6000614269601483614af8565b91507f53657420746f2076616c696420616464726573730000000000000000000000006000830152602082019050919050565b60006142a9602683614af8565b91507f4f776e61626c653a206e6577206f776e657220697320746865207a65726f206160008301527f64647265737300000000000000000000000000000000000000000000000000006020830152604082019050919050565b600061430f601b83614af8565b91507f536166654d6174683a206164646974696f6e206f766572666c6f7700000000006000830152602082019050919050565b600061434f601983614af8565b91507f4572726f723a204e6f7420656e6f7567682062616c616e6365000000000000006000830152602082019050919050565b600061438f601f83614af8565b91507f436f6c6c61746572616c2074797065206e6f742077686974656c6973746564006000830152602082019050919050565b60006143cf601e83614af8565b91507f536166654d6174683a207375627472616374696f6e206f766572666c6f7700006000830152602082019050919050565b600061440f601a83614af8565b91507f536166654d6174683a206469766973696f6e206279207a65726f0000000000006000830152602082019050919050565b600061444f602183614af8565b91507f536166654d6174683a206d756c7469706c69636174696f6e206f766572666c6f60008301527f77000000000000000000000000000000000000000000000000000000000000006020830152604082019050919050565b60006144b5601b83614af8565b91507f414d4d204c5020506f6f6c206e6f742077686974656c697374656400000000006000830152602082019050919050565b60006144f5602083614af8565b91507f4f776e61626c653a2063616c6c6572206973206e6f7420746865206f776e65726000830152602082019050919050565b6000614535601883614af8565b91507f6e6f773c6c61737448616c6f56657374526577617264547300000000000000006000830152602082019050919050565b6000614575601d83614af8565b91507f436f6c6c61746572616c207479706520616c72656164792061646465640000006000830152602082019050919050565b60006145b5601383614af8565b91507f416c726561647920696e697469616c697a6564000000000000000000000000006000830152602082019050919050565b60006145f5602283614af8565b91507f4572726f723a20436f6c6c61746572616c2074797065206e6f7420616c6c6f7760008301527f65640000000000000000000000000000000000000000000000000000000000006020830152604082019050919050565b600061465b602b83614af8565b91507f4f6e6c79206d696e74657220636f6e74726163742063616e2063616c6c20746860008301527f69732066756e6374696f6e0000000000000000000000000000000000000000006020830152604082019050919050565b60006146c1601983614af8565b91507f4572726f723a20416d6d204c70206e6f7420616c6c6f776564000000000000006000830152602082019050919050565b60808201600082015161470a60008501826141fe565b50602082015161471d6020850182614749565b5060408201516147306040850182614749565b5060608201516147436060850182614749565b50505050565b61475281614b47565b82525050565b61476181614b47565b82525050565b600060208201905061477c60008301846141ef565b92915050565b600060608201905061479760008301866141ef565b6147a460208301856141ef565b6147b16040830184614758565b949350505050565b60006040820190506147ce60008301856141ef565b6147db6020830184614758565b9392505050565b60006060820190506147f760008301866141ef565b6148046020830185614758565b6148116040830184614758565b949350505050565b600060208201905061482e600083018461420d565b92915050565b6000608082019050614849600083018761420d565b6148566020830186614758565b6148636040830185614758565b6148706060830184614758565b95945050505050565b600060208201905081810360008301526148928161421c565b9050919050565b600060208201905081810360008301526148b28161425c565b9050919050565b600060208201905081810360008301526148d28161429c565b9050919050565b600060208201905081810360008301526148f281614302565b9050919050565b6000602082019050818103600083015261491281614342565b9050919050565b6000602082019050818103600083015261493281614382565b9050919050565b60006020820190508181036000830152614952816143c2565b9050919050565b6000602082019050818103600083015261497281614402565b9050919050565b6000602082019050818103600083015261499281614442565b9050919050565b600060208201905081810360008301526149b2816144a8565b9050919050565b600060208201905081810360008301526149d2816144e8565b9050919050565b600060208201905081810360008301526149f281614528565b9050919050565b60006020820190508181036000830152614a1281614568565b9050919050565b60006020820190508181036000830152614a32816145a8565b9050919050565b60006020820190508181036000830152614a52816145e8565b9050919050565b60006020820190508181036000830152614a728161464e565b9050919050565b60006020820190508181036000830152614a92816146b4565b9050919050565b6000608082019050614aae60008301846146f4565b92915050565b6000602082019050614ac96000830184614758565b92915050565b6000604082019050614ae46000830185614758565b614af16020830184614758565b9392505050565b600082825260208201905092915050565b6000614b1482614b27565b9050919050565b60008115159050919050565b600073ffffffffffffffffffffffffffffffffffffffff82169050919050565b6000819050919050565b614b5a81614b09565b8114614b6557600080fd5b50565b614b7181614b1b565b8114614b7c57600080fd5b50565b614b8881614b47565b8114614b9357600080fd5b5056fea264697066735822122039671085b14dbda547e0af8f1b6f58bc15aa514c4278b1ea884e675e16d2fee664736f6c63430006000033",
  "linkReferences": {},
  "deployedLinkReferences": {}
}